{
  "contractName": "Property",
  "abi": [
    {
      "constant": true,
      "inputs": [],
      "name": "investor",
      "outputs": [
        {
          "name": "",
          "type": "address"
        }
      ],
      "payable": false,
      "stateMutability": "view",
      "type": "function"
    },
    {
      "constant": true,
      "inputs": [],
      "name": "okay",
      "outputs": [
        {
          "name": "",
          "type": "uint256"
        }
      ],
      "payable": false,
      "stateMutability": "view",
      "type": "function"
    },
    {
      "constant": true,
      "inputs": [],
      "name": "avail",
      "outputs": [
        {
          "name": "",
          "type": "uint256"
        }
      ],
      "payable": false,
      "stateMutability": "view",
      "type": "function"
    },
    {
      "constant": true,
      "inputs": [],
      "name": "toke_val",
      "outputs": [
        {
          "name": "",
          "type": "uint256"
        }
      ],
      "payable": false,
      "stateMutability": "view",
      "type": "function"
    },
    {
      "constant": true,
      "inputs": [],
      "name": "buyer",
      "outputs": [
        {
          "name": "",
          "type": "address"
        }
      ],
      "payable": false,
      "stateMutability": "view",
      "type": "function"
    },
    {
      "constant": true,
      "inputs": [],
      "name": "toke_price",
      "outputs": [
        {
          "name": "",
          "type": "uint256"
        }
      ],
      "payable": false,
      "stateMutability": "view",
      "type": "function"
    },
    {
      "constant": true,
      "inputs": [],
      "name": "builder",
      "outputs": [
        {
          "name": "",
          "type": "address"
        }
      ],
      "payable": false,
      "stateMutability": "view",
      "type": "function"
    },
    {
      "constant": true,
      "inputs": [
        {
          "name": "",
          "type": "uint256"
        }
      ],
      "name": "bahot_ids",
      "outputs": [
        {
          "name": "",
          "type": "uint256"
        }
      ],
      "payable": false,
      "stateMutability": "view",
      "type": "function"
    },
    {
      "inputs": [],
      "payable": false,
      "stateMutability": "nonpayable",
      "type": "constructor"
    },
    {
      "constant": false,
      "inputs": [
        {
          "name": "_toke_val",
          "type": "uint256"
        }
      ],
      "name": "little_prop",
      "outputs": [],
      "payable": true,
      "stateMutability": "payable",
      "type": "function"
    },
    {
      "constant": false,
      "inputs": [
        {
          "name": "room_id",
          "type": "uint256"
        }
      ],
      "name": "buy",
      "outputs": [],
      "payable": true,
      "stateMutability": "payable",
      "type": "function"
    },
    {
      "constant": false,
      "inputs": [],
      "name": "allpropsold",
      "outputs": [],
      "payable": false,
      "stateMutability": "nonpayable",
      "type": "function"
    }
  ],
  "bytecode": "0x6080604052600160075561014060405190810160405280600060ff168152602001600160ff168152602001600260ff168152602001600360ff168152602001600460ff168152602001600560ff168152602001600660ff168152602001600760ff168152602001600860ff168152602001600960ff16815250600990600a6100889291906100e4565b5034801561009557600080fd5b50610fa0600681905550336000806101000a81548173ffffffffffffffffffffffffffffffffffffffff021916908373ffffffffffffffffffffffffffffffffffffffff16021790555061015b565b828054828255906000526020600020908101928215610125579160200282015b82811115610124578251829060ff16905591602001919060010190610104565b5b5090506101329190610136565b5090565b61015891905b8082111561015457600081600090555060010161013c565b5090565b90565b6106de8061016a6000396000f3006080604052600436106100af576000357c0100000000000000000000000000000000000000000000000000000000900463ffffffff16806317b87b6b146100b45780631e0018d6146100cb5780633020edde14610122578063565fee4a146101425780635bdeac421461016d578063705e3b0b146101985780637150d8ae146101c3578063c82bd1c61461021a578063d7e84fbf14610245578063d96a094a1461029c578063e109bcb4146102bc575b600080fd5b3480156100c057600080fd5b506100c96102fd565b005b3480156100d757600080fd5b506100e06103e1565b604051808273ffffffffffffffffffffffffffffffffffffffff1673ffffffffffffffffffffffffffffffffffffffff16815260200191505060405180910390f35b61014060048036038101908080359060200190929190505050610407565b005b34801561014e57600080fd5b50610157610529565b6040518082815260200191505060405180910390f35b34801561017957600080fd5b5061018261052f565b6040518082815260200191505060405180910390f35b3480156101a457600080fd5b506101ad610535565b6040518082815260200191505060405180910390f35b3480156101cf57600080fd5b506101d861053b565b604051808273ffffffffffffffffffffffffffffffffffffffff1673ffffffffffffffffffffffffffffffffffffffff16815260200191505060405180910390f35b34801561022657600080fd5b5061022f610561565b6040518082815260200191505060405180910390f35b34801561025157600080fd5b5061025a610567565b604051808273ffffffffffffffffffffffffffffffffffffffff1673ffffffffffffffffffffffffffffffffffffffff16815260200191505060405180910390f35b6102ba6004803603810190808035906020019092919050505061058c565b005b3480156102c857600080fd5b506102e76004803603810190808035906020019092919050505061068f565b6040518082815260200191505060405180910390f35b6000809054906101000a900473ffffffffffffffffffffffffffffffffffffffff1673ffffffffffffffffffffffffffffffffffffffff163373ffffffffffffffffffffffffffffffffffffffff1614151561035857600080fd5b6000809054906101000a900473ffffffffffffffffffffffffffffffffffffffff1673ffffffffffffffffffffffffffffffffffffffff166108fc3073ffffffffffffffffffffffffffffffffffffffff16319081150290604051600060405180830381858888f193505050501580156103d6573d6000803e3d6000fd5b506000600681905550565b600160009054906101000a900473ffffffffffffffffffffffffffffffffffffffff1681565b806006541015151561041857600080fd5b670de0b6b3a764000081600754020260028190555080600654036006819055506000600560009054906101000a900473ffffffffffffffffffffffffffffffffffffffff1673ffffffffffffffffffffffffffffffffffffffff161415156104e5576000809054906101000a900473ffffffffffffffffffffffffffffffffffffffff1673ffffffffffffffffffffffffffffffffffffffff166108fc6002549081150290604051600060405180830381858888f193505050501580156104e3573d6000803e3d6000fd5b505b33600160006101000a81548173ffffffffffffffffffffffffffffffffffffffff021916908373ffffffffffffffffffffffffffffffffffffffff16021790555050565b60045481565b60065481565b60035481565b600560009054906101000a900473ffffffffffffffffffffffffffffffffffffffff1681565b60025481565b6000809054906101000a900473ffffffffffffffffffffffffffffffffffffffff1681565b61019060065411151561059e57600080fd5b61019060065403600681905550670de0b6b3a764000061019060075402026004819055506000600560009054906101000a900473ffffffffffffffffffffffffffffffffffffffff1673ffffffffffffffffffffffffffffffffffffffff1614151561066f576000809054906101000a900473ffffffffffffffffffffffffffffffffffffffff1673ffffffffffffffffffffffffffffffffffffffff166108fc6004549081150290604051600060405180830381858888f1935050505015801561066d573d6000803e3d6000fd5b505b60098181548110151561067e57fe5b906000526020600020016000905550565b60098181548110151561069e57fe5b9060005260206000200160009150905054815600a165627a7a72305820781520a535940b52b0d47bf4c8c5e6a575453df3062bbbe328da46007710e3230029",
  "source": "pragma solidity ^0.4.19;\ncontract Property {\n  address public builder;\n  address public investor;\n  //address public seller;\n  uint public toke_price; //conv ke baad\n  uint public toke_val; //sqft mein\n  uint public okay; //selling price of house\n  address public buyer;\n  //uint public latestprice; //pata_nahi_kyu \n  uint public avail; //sqft mein\n  uint cf=1;\n  /*\n  struct kuch_toh_id_type {\n    uint  value;\n    uint sqft;\n }*/\n \n uint room_ids;\n \n  uint [] public bahot_ids = [0,1,2,3,4,5,6,7,8,9];\n  //function Property()\n  constructor() public {\n    avail = 4000;\n    builder = msg.sender;\n  }\n \n  function little_prop(uint _toke_val) public payable{\n    require(avail>=_toke_val);\n    \n    toke_price = cf * _toke_val * 1 ether; //1000000000000000000;\n    avail = avail - _toke_val;\n    if (buyer != 0x0) {\n      builder.transfer(uint(toke_price));\n    }\n    //builder.transfer(uint(toke_price));\n    investor = msg.sender;\n \n  }\n  /*\n function show() view public returns(uint[]){\n    return (bahot_ids);\n }*/\n \n  function buy(uint  room_id) public payable {\n    require(avail>400);\n    avail = avail-400;\n    okay= cf * 400 * 1 ether;\n    if (buyer != 0x0) {\n      builder.transfer(uint(okay));\n    }\n    delete bahot_ids[room_id];\n  }\n \n  function allpropsold() restricted public {\n    builder.transfer(address(this).balance);\n    avail=0;\n  }\n \n  modifier restricted() {\t\n    require(msg.sender == builder);\n    _;\n  }\n}\n\n",
  "sourcePath": "/home/adi/Dev/trdp/contracts/property.sol",
  "compiler": {
    "name": "solc",
    "version": "0.4.24+commit.e67f0147.Emscripten.clang"
  },
  "schemaVersion": "2.0.0",
  "updatedAt": "2018-12-21T19:37:50.446Z"
}