{
  "contractName": "property",
  "abi": [
    {
      "constant": true,
      "inputs": [],
      "name": "investor",
      "outputs": [
        {
          "name": "",
          "type": "address"
        }
      ],
      "payable": false,
      "stateMutability": "view",
      "type": "function"
    },
    {
      "constant": true,
      "inputs": [],
      "name": "okay",
      "outputs": [
        {
          "name": "",
          "type": "uint256"
        }
      ],
      "payable": false,
      "stateMutability": "view",
      "type": "function"
    },
    {
      "constant": true,
      "inputs": [],
      "name": "avail",
      "outputs": [
        {
          "name": "",
          "type": "uint256"
        }
      ],
      "payable": false,
      "stateMutability": "view",
      "type": "function"
    },
    {
      "constant": true,
      "inputs": [],
      "name": "toke_val",
      "outputs": [
        {
          "name": "",
          "type": "uint256"
        }
      ],
      "payable": false,
      "stateMutability": "view",
      "type": "function"
    },
    {
      "constant": true,
      "inputs": [],
      "name": "buyer",
      "outputs": [
        {
          "name": "",
          "type": "address"
        }
      ],
      "payable": false,
      "stateMutability": "view",
      "type": "function"
    },
    {
      "constant": true,
      "inputs": [],
      "name": "mainwala",
      "outputs": [
        {
          "name": "",
          "type": "address"
        }
      ],
      "payable": false,
      "stateMutability": "view",
      "type": "function"
    },
    {
      "constant": true,
      "inputs": [],
      "name": "toke_price",
      "outputs": [
        {
          "name": "",
          "type": "uint256"
        }
      ],
      "payable": false,
      "stateMutability": "view",
      "type": "function"
    },
    {
      "constant": true,
      "inputs": [],
      "name": "builder",
      "outputs": [
        {
          "name": "",
          "type": "address"
        }
      ],
      "payable": false,
      "stateMutability": "view",
      "type": "function"
    },
    {
      "constant": true,
      "inputs": [
        {
          "name": "",
          "type": "uint256"
        }
      ],
      "name": "bahot_ids",
      "outputs": [
        {
          "name": "",
          "type": "uint256"
        }
      ],
      "payable": false,
      "stateMutability": "view",
      "type": "function"
    },
    {
      "inputs": [],
      "payable": false,
      "stateMutability": "nonpayable",
      "type": "constructor"
    },
    {
      "constant": false,
      "inputs": [
        {
          "name": "_toke_val",
          "type": "uint256"
        }
      ],
      "name": "little_prop",
      "outputs": [],
      "payable": true,
      "stateMutability": "payable",
      "type": "function"
    },
    {
      "constant": false,
      "inputs": [
        {
          "name": "room_id",
          "type": "uint256"
        }
      ],
      "name": "buy",
      "outputs": [],
      "payable": true,
      "stateMutability": "payable",
      "type": "function"
    },
    {
      "constant": false,
      "inputs": [],
      "name": "allpropsold",
      "outputs": [],
      "payable": false,
      "stateMutability": "nonpayable",
      "type": "function"
    }
  ],
  "bytecode": "0x6080604052610fa0600655600160075561014060405190810160405280600060ff168152602001600160ff168152602001600260ff168152602001600360ff168152602001600460ff168152602001600560ff168152602001600660ff168152602001600760ff168152602001600860ff168152602001600960ff16815250600a90600a61008e929190610122565b5034801561009b57600080fd5b50336000806101000a81548173ffffffffffffffffffffffffffffffffffffffff021916908373ffffffffffffffffffffffffffffffffffffffff16021790555033600960006101000a81548173ffffffffffffffffffffffffffffffffffffffff021916908373ffffffffffffffffffffffffffffffffffffffff160217905550610199565b828054828255906000526020600020908101928215610163579160200282015b82811115610162578251829060ff16905591602001919060010190610142565b5b5090506101709190610174565b5090565b61019691905b8082111561019257600081600090555060010161017a565b5090565b90565b610769806101a86000396000f3006080604052600436106100ba576000357c0100000000000000000000000000000000000000000000000000000000900463ffffffff16806317b87b6b146100bf5780631e0018d6146100d65780633020edde1461012d578063565fee4a1461014d5780635bdeac4214610178578063705e3b0b146101a35780637150d8ae146101ce5780638ddcaa6a14610225578063c82bd1c61461027c578063d7e84fbf146102a7578063d96a094a146102fe578063e109bcb41461031e575b600080fd5b3480156100cb57600080fd5b506100d461035f565b005b3480156100e257600080fd5b506100eb610445565b604051808273ffffffffffffffffffffffffffffffffffffffff1673ffffffffffffffffffffffffffffffffffffffff16815260200191505060405180910390f35b61014b6004803603810190808035906020019092919050505061046b565b005b34801561015957600080fd5b5061016261058d565b6040518082815260200191505060405180910390f35b34801561018457600080fd5b5061018d610593565b6040518082815260200191505060405180910390f35b3480156101af57600080fd5b506101b8610599565b6040518082815260200191505060405180910390f35b3480156101da57600080fd5b506101e361059f565b604051808273ffffffffffffffffffffffffffffffffffffffff1673ffffffffffffffffffffffffffffffffffffffff16815260200191505060405180910390f35b34801561023157600080fd5b5061023a6105c5565b604051808273ffffffffffffffffffffffffffffffffffffffff1673ffffffffffffffffffffffffffffffffffffffff16815260200191505060405180910390f35b34801561028857600080fd5b506102916105eb565b6040518082815260200191505060405180910390f35b3480156102b357600080fd5b506102bc6105f1565b604051808273ffffffffffffffffffffffffffffffffffffffff1673ffffffffffffffffffffffffffffffffffffffff16815260200191505060405180910390f35b61031c60048036038101908080359060200190929190505050610616565b005b34801561032a57600080fd5b506103496004803603810190808035906020019092919050505061071a565b6040518082815260200191505060405180910390f35b600960009054906101000a900473ffffffffffffffffffffffffffffffffffffffff1673ffffffffffffffffffffffffffffffffffffffff163373ffffffffffffffffffffffffffffffffffffffff161415156103bb57600080fd5b600960009054906101000a900473ffffffffffffffffffffffffffffffffffffffff1673ffffffffffffffffffffffffffffffffffffffff166108fc3073ffffffffffffffffffffffffffffffffffffffff16319081150290604051600060405180830381858888f1935050505015801561043a573d6000803e3d6000fd5b506000600681905550565b600160009054906101000a900473ffffffffffffffffffffffffffffffffffffffff1681565b806006541015151561047c57600080fd5b670de0b6b3a764000081600754020260028190555080600654036006819055506000600560009054906101000a900473ffffffffffffffffffffffffffffffffffffffff1673ffffffffffffffffffffffffffffffffffffffff16141515610549576000809054906101000a900473ffffffffffffffffffffffffffffffffffffffff1673ffffffffffffffffffffffffffffffffffffffff166108fc6002549081150290604051600060405180830381858888f19350505050158015610547573d6000803e3d6000fd5b505b33600160006101000a81548173ffffffffffffffffffffffffffffffffffffffff021916908373ffffffffffffffffffffffffffffffffffffffff16021790555050565b60045481565b60065481565b60035481565b600560009054906101000a900473ffffffffffffffffffffffffffffffffffffffff1681565b600960009054906101000a900473ffffffffffffffffffffffffffffffffffffffff1681565b60025481565b6000809054906101000a900473ffffffffffffffffffffffffffffffffffffffff1681565b61019060065411151561062857600080fd5b61019060065403600681905550670de0b6b3a764000061019060075402026004819055506000600560009054906101000a900473ffffffffffffffffffffffffffffffffffffffff1673ffffffffffffffffffffffffffffffffffffffff161415156106fa57600560009054906101000a900473ffffffffffffffffffffffffffffffffffffffff1673ffffffffffffffffffffffffffffffffffffffff166108fc6004549081150290604051600060405180830381858888f193505050501580156106f8573d6000803e3d6000fd5b505b600a8181548110151561070957fe5b906000526020600020016000905550565b600a8181548110151561072957fe5b9060005260206000200160009150905054815600a165627a7a72305820d50ffe37bf53e5f88823c0e4ab67e4438b756139d35873a00bf0e4233071a6ce0029",
  "source": "pragma solidity ^0.4.19;\ncontract property {\n  address public builder;\n  address public investor;\n  //address public seller;\n  uint public toke_price; //conv ke baad\n  uint public toke_val; //sqft mein\n  uint public okay; //selling price of house\n  address public buyer;\n  //uint public latestprice; //pata_nahi_kyu \n  uint public avail=4000; //sqft mein\n  uint cf=1;\n  /*\n  struct kuch_toh_id_type {\n    uint  value;\n    uint sqft;\n }*/\n \n uint room_ids;\n address public mainwala;\n \n  uint [] public bahot_ids = [0,1,2,3,4,5,6,7,8,9];\n  //function Property()\n  constructor() public {\n    builder = msg.sender;\n    mainwala=msg.sender;\n\n  }\n \n  function little_prop(uint _toke_val) public payable{\n    require(avail>=_toke_val);\n    \n    toke_price = cf * _toke_val * 1 ether; //1000000000000000000;\n    avail = avail - _toke_val;\n    if (buyer != 0x0) {\n      builder.transfer(uint(toke_price));\n    }\n    //builder.transfer(uint(toke_price));\n    investor = msg.sender;\n \n  }\n  /*\n function show() view public returns(uint[]){\n    return (bahot_ids);\n }*/\n \n  function buy(uint  room_id) public payable {\n    require(avail>400);\n    avail = avail-400;\n    okay= cf * 400 * 1 ether;\n    if (buyer != 0x0) {\n      buyer.transfer(uint(okay));\n    }\n    delete bahot_ids[room_id];\n  }\n \n  function allpropsold() restricted public {\n    mainwala.transfer(address(this).balance);\n    avail=0;\n  }\n \n  modifier restricted() {\t\n    require(msg.sender == mainwala);\n    _;\n  }\n}\n\n",
  "sourcePath": "/home/adi/Dev/trdp/contracts/property.sol",
  "compiler": {
    "name": "solc",
    "version": "0.4.24+commit.e67f0147.Emscripten.clang"
  },
  "schemaVersion": "2.0.0",
  "updatedAt": "2018-12-22T03:50:44.197Z"
}